:020000005C287A
:0E0006008312031327088A00260882000800D0
:100014000E3083120313FD00FD0B0E2800000800B0
:10002400831203139F01C0309F042009F00070085D
:1000340083169F051F179F1783122808F000F00DE1
:100044007010F00D7010F00D701070089F041F14E4
:100054000A201F151F1D302800002C281F101E0801
:10006400F100F00183161E08F0040030F1040800CA
:10007400FF3083120313A100FF30A200FF30A3005E
:10008400FF309F01C0309F042009F00070088316E0
:0C0094009F051F179F1783121F14080000
:1000A00003208A110A128000840AA60A0319A70AEB
:0800B000F003031D50280800B5
:1000B8007C203A20FF3083168500870186010230B4
:1000C8008312A800122070088312A4007108A500EA
:1000D800700886007108F200F3017208870063282F
:0200E80074287A
:1000F80020308400013083120313F0007A30A60008
:080108000030A70050200800A0
:0200F4000F34C7
:02400E004A2F37
:00000001FF
