:020000005E2878
:0E0006008312031326088A00250882000800D2
:100014000E3083120313FD00FD0B0E2800000800B0
:10002400831603139816903083129800831687174B
:10003400071383128C1E21281A08F0001B280800BD
:10004400C330831203139F05C0309F002908F000BA
:10005400F00D7010F00D701070089F042009F0006E
:10006400700883169F059F1783121F140A209F147C
:100074009F1C3E2800003A281F101E08F100F001C2
:0C00840083161E08F0040030F104080090
:1000900003208A110A128000840AA50A0319A60AFD
:0800A000F003031D48280800CD
:1000A8008316031398185A28000054288312290825
:0400B80099000800A3
:1000BC009A2007308316031788008901831287134F
:1000CC0088130730831603138500333099001815F5
:1000DC001220A901222070088312A7007108A80021
:1000EC000130A900222070088312A1007108A2001F
:1000FC000230A900222070088312A3007108A4000A
:10010C002708A90054202D30A90054202308A90049
:0C011C0054202D30A90054206F28932897
:1001340020308400013083120313F0009930A500AD
:080144000030A600482008006D
:02013200303467
:04400E00F22F000786
:00000001FF
