:020000002F28A7
:0E0006000030831203138C1A0130F000080042
:10001400831603139816903083129800831687175B
:10002400071383128C1E19281A08F00013280800DD
:10003400831203131A08F100981C222818121816A8
:060044007108F000080045
:10004A008316031398182B280000252883122308E7
:04005A009900080001
:10005E0083160313860155308312860033308316C0
:10006E00990018150A2003207008031944281A2035
:10007E007008A2007008A30025202208303A031D44
:10008E004B283F30860051282208313A031D512853
:08009E00063086003A285228C2
:02400E004A2F37
:00000001FF
